:020000040800F2
:1000000000000220ED310008FD3000080531000835
:100010000D310008153100081D31000800000000F6
:1000200000000000000000000000000071860008D1
:100030002531000800000000C1880008B95A0008F6
:100040003D3200083D3200083D3200083D320008D4
:100050003D3200083D3200083D3200083D320008C4
:100060003D3200083D3200083D3200083D320008B4
:100070003D3200083D3200083D3200083D320008A4
:100080003D3200083D3200083D320008000000000B
:100090000000000000000000000000003D320008E9
:1000A0003D3200083D3200083D3200083D32000874
:1000B0003D3200083D320008353100083D3200086D
:1000C0003D3200083D3200083D3200083D32000854
:1000D0003D3200083D3200083D32000800000000BB
:1000E0003D3200083D3200083D32000800000000AB
:1000F0000000000000000000000000003D32000889
:10010000000000003D3200083D3200083D3200088A
:1001100000000000000000000000000000000000DF
:10012000493100083D3200083D3200083D320008E8
:100130003D32000800000000000000000000000048
:100140000000000000000000000000003D32000838
:100150003D3200083D3200083D3200083D320008C3
:100160003D3200083D3200080000000000000000A1
:10017000000000000000000000000000000000007F
:10018000000000003D3200080000000000000000F8
:080190003D3200083D32000879
:1001A00010B5054C237833B9044B13B10448AFF3B1
:1001B00000800123237010BD0C050020000000000A
:1001C0002498000808B5034B1BB103490348AFF35B
:1001D000008008BD000000001005002024980008E1
:1001E00001F0FF01102A2BDB10F0070F08D010F8E8
:1001F000013B013A8B422DD010F0070F42B3F6D1EC
:10020000F0B441EA012141EA014122F007047FF004
:1002100000070023F0E80256083C85EA010586EA5B
:10022000010685FA47F5A3FA87F586FA47F6A5FA97
:1002300087F68EB9EED1F0BC01F0FF0102F00702A3
:1002400032B110F8013B013A83EA010313B1F8D14E
:100250000020704701387047002D06BF354603382F
:10026000073815F0010F07D1013015F4807F02BF68
:10027000013015F4C03F0130F0BC0138704700BFB9
:1002800053B94AB9002908BF00281CBF4FF0FF31FD
:100290004FF0FF3000F088B9ADF1080C6DE904CEE5
:1002A00000F006F8DDF804E0DDE9022304B0704751
:1002B0002DE9F047089D8E4604468846002B4AD11A
:1002C0008A42174662D9B2FA82F64EB1C6F12003CD
:1002D00001FA06F820FA03F3B74043EA0808B440ED
:1002E0004FEA174E1FFA87FCB8FBFEF1230C0EFBFA
:1002F000118843EA084301FB0CF29A4209D9FB1822
:1003000001F1FF3080F0EA809A4240F2E780023942
:100310003B449A1AA3B2B2FBFEF00EFB102243EA52
:10032000024300FB0CFC9C4509D9FB1800F1FF328D
:1003300080F0D6809C4540F2D3803B44023840EAAE
:100340000140A3EB0C0300211DB1F3400022C5E9DD
:100350000032BDE8F0878B4205D90DB1C5E9000137
:1003600000210846F5E7B3FA83F1002946D1734529
:1003700002D3824200F20581841A6EEB030201204F
:100380009046002DE5D0C5E90048E2E7002A00F0DC
:100390009080B2FA82F6002E40F0A4808A1A030CF4
:1003A0004FEA174E80B2BCB20121B2FBFEFC0EFB3D
:1003B0001C2243EA024304FB0CF29A4207D9FB18C1
:1003C0000CF1FF3802D29A4200F2E080C4469B1A38
:1003D000B3FBFEF20EFB123340EA034302FB04F4CC
:1003E0009C4207D9FB1802F1FF3002D29C4200F276
:1003F000CA8002461B1B42EA0C40A5E7C1F1200659
:100400008B4022FA06F71F430EFA01F420FA06F396
:100410002EFA06FE4FEA1749234300FA01F81FFAA5
:1004200087FCBEFBF9F01C0C09FB10EE44EA0E44FD
:1004300000FB0CFEA64502FA01F209D93C1900F1B5
:10044000FF3A80F09C80A64540F2998002383C44F7
:10045000A4EB0E041FFA83FEB4FBF9F309FB13446B
:100460004EEA044403FB0CFCA44508D93C1903F1F3
:10047000FF3E80F08280A4457FD9023B3C4443EAA2
:100480000040A4EB0C04A0FB02EC64457346E1467B
:1004900062D35FD05DB1B8EB030264EB090404FAE8
:1004A00006F622FA01F31E43CC40C5E900640021A0
:1004B0004FE7B1FBF2FC010C41EA0E4180B240EA89
:1004C00001423B4638463C46B846BE462026B1FB74
:1004D000F7F1A2EB080241EA0C4166E7014618E792
:1004E00010462CE7C6F120022EFA02F3B740B140C5
:1004F00020FA02F24FEA174E0A43B3FBFEF8BCB2F1
:100500000EFB1833110C41EA034108FB04F9B0401B
:1005100089454FEA104380B23ED9791808F1FF3C73
:1005200001D289451FD8A1EB0901B1FBFEF909FBF6
:1005300004F80EFB191192B242EA0142424529D257
:10054000BA1809F1FF31C4D24245C2D2A9F1020161
:100550003A44BEE7F0459DD2BEEB02036CEB070CBC
:100560000138E14696E7A7EB09094944A8F1020CD6
:10057000B1FBFEF909FB04F8DBE773467FE7504661
:1005800066E70846FDE63B44023A33E7ACF1020C6D
:100590003B441CE749469CE7A1EB0901C446B1FB7B
:1005A000FEF909FB04F8C4E7704700BF80B483B0CC
:1005B00000AF7860064B1A88064B1A80044B5A88A5
:1005C000044B5A8000BF0C37BD465DF8047B704772
:1005D000B8060020BC06002080B582B000AF002322
:1005E000FB710AE0084B1868F91D0023002205F092
:1005F000A3FDFB790133DBB2FB71FB79022BF1D94F
:10060000142006F0EFFCEAE744060020B0B5CEB0B7
:1006100002AF07F59873A3F59673186007F1D0033E
:1006200020220021184608F0CFFC07F59873A3F5A7
:1006300090731846C0231A46002108F0C5FC06F046
:100640002BFF024607F59873A3F592731A60C54B0A
:100650001B684FF0FF31184605F0F0FFC24B1B68D6
:1006600007F1F4010022184605F006FFC7F82C0137
:10067000BE4B1B6807F1F3010022184605F0FCFE93
:10068000C7F8280108E297F809319B0003F5987331
:100690003B4453F8603C002B1DD197F809319B0077
:1006A00003F598733B44012243F8602C97F8093115
:1006B000194607F59873A3F590720B465B000B443F
:1006C000DB0013441D4607F1F4040FCC0FC594E87A
:1006D000030085E80300B7F9FC30002B02DA0023A1
:1006E000A7F8FC30B7F9FE30002B02DA0023A7F898
:1006F000FE30B7F90031002B02DA0023A7F80031F1
:10070000B7F90231002B02DA0023A7F80231B7F95A
:10071000003198B2B7F9023199B297F8F4301A461D
:1007200097F8F5301C4600230093234602F040FA68
:10073000B7F9FC301846B7F9FE301946D7F804313E
:100740009BB2009307F1F4030CCB02F0D4FA97F8B4
:100750000931194607F59873A3F590720B465B00B3
:100760000B44DB0013441D4607F1F4040FCC0FC506
:1007700094E8030085E80300B7F8FC30A7F81C31C3
:1007800097F8F430A7F81A31B7F81C21B7F81A31E6
:1007900013449BB2A7F81831B7F8FE30A7F816310A
:1007A00097F8F530A7F81431B7F81621B7F81431D7
:1007B00013449BB2A7F812310023C7F824315CE13F
:1007C0000023C7F820314EE1D7F820319B0003F514
:1007D00098733B4453F8603C012B40F03F8107F590
:1007E0009873A3F59071D7F8202113465B0013444A
:1007F000DB000B4415331A7897F809319A4200F060
:100800002D81B7F91C1107F59873A3F59070D7F8EF
:10081000202113465B001344DB0003440833B3F983
:100820000030C91A07F59873A3F59070D7F8202106
:1008300013465B001344DB0003441B789942D4BF8A
:1008400001230023DBB287F8113107F59873A3F574
:100850009071D7F8202113465B001344DB000B4452
:100860000833B3F90030B7F918219A42ACBF01231D
:100870000023DBB287F81031002387F81F31B7F966
:10088000161107F59873A3F59070D7F82021134639
:100890005B001344DB0003440A33B3F90030C91A88
:1008A00007F59873A3F59070D7F8202113465B00E5
:1008B0001344DB00034401331B789942D4BF012366
:1008C0000023DBB287F80F3107F59873A3F5907119
:1008D000D7F8202113465B001344DB000B440A3396
:1008E000B3F90030B7F912219A42ACBF01230023BB
:1008F000DBB287F80E31002387F81E31B7F91C11DF
:1009000007F59873A3F59070D7F8202113465B0084
:100910001344DB0003440833B3F90030CB1A002B37
:1009200004DD97F8113187F81F3103E097F8103193
:1009300087F81F31B7F9161107F59873A3F5907072
:10094000D7F8202113465B001344DB0003440A332D
:10095000B3F90030CB1A002B0ADD97F80F3187F876
:100960001E3109E078060020480600204C060020D1
:1009700097F80E3187F81E3197F81F31002B6DD094
:1009800097F81E31002B69D007F59873A3F5907185
:10099000D7F8202113465B001344DB000B441433CB
:1009A0001B781A46D7F82431934257D17C4B1868EC
:1009B00007F1F40303F115010023002205F0BCFB4D
:1009C000774B186807F11001D7F8202113465B0018
:1009D0001344DB0010330B44591D0023002205F0A3
:1009E000ABFB07F59873A3F59071D7F82021134658
:1009F0005B001344DB000B440833B3F900301C46A2
:100A000007F59873A3F59071D7F8202113465B0082
:100A10001344DB000B440A33B3F900301D4607F5DD
:100A20009873A3F59071D7F8202113465B00134407
:100A3000DB000B4410331B6899B207F59873A3F5DC
:100A40009070D7F8202113465B001344DB00034469
:100A500000910CCB2946204602F04DF9D7F8203101
:100A60000133C7F82031D7F82031072B7FF7ACAE20
:100A7000D7F824310133C7F82431D7F82431022BB9
:100A80007FF79EAE474B1B6807F1F4010022184622
:100A900005F0F2FCC7F82C01D7F82C31012B3FF4FC
:100AA000F2AD6AE097F8F330194607F59873A3F5AD
:100AB00090720B465B000B44DB0013440833B3F920
:100AC000003098B297F8F330194607F59873A3F5FC
:100AD00090720B465B000B44DB0013440A33B3F9FE
:100AE000003099B297F8F3301C4607F59873A3F5D8
:100AF000907223465B002344DB0013441B781D46A1
:100B000097F8F3301C4607F59873A3F590722346C7
:100B10005B002344DB00134401331B781A46002397
:100B2000009313462A4602F043F897F8F3309B00EF
:100B300003F598733B44002243F8602C97F8F33098
:100B4000194607F59873A3F590720B465B000B44AA
:100B5000DB001344144A1C4615460FCD0FC495E81C
:100B6000030084E80300114B1B6807F1F301002226
:100B7000184605F081FCC7F82801D7F82831012B69
:100B800090D00B4B186800230022002105F0D4FA06
:100B900007F10C030821184606F0A4F957E500BF39
:100BA0005006002048060020800600204C06002049
:100BB0007806002080B584B000AF7860FF23BB7258
:100BC0000123FB730023BB7300237B7300BF814BA6
:100BD0001B6807F10C010022184605F04DFC034686
:100BE000012BF4D07B4B1B6807F10C014FF0FF3257
:100BF000184605F041FC774B1B6807F10B014FF0DD
:100C0000FF32184605F038FC3B7B002B03D0FB7A03
:100C1000002B40F083803B7B002B02D03B7B042BDE
:100C200005D9FB7A002B79D0FB7A042B76D8FB7B95
:100C3000002B73D03B7B002B13D03B7B042B10D8B5
:100C4000654B186807F10A010023002205F074FAC9
:100C5000614B186807F10C010023002205F06CFAC3
:100C600015E0FB7A002B12D0FB7A042B0FD85A4BDD
:100C7000186807F10A010023002205F05DFA564BBF
:100C8000186807F10B010023002205F055FA534BB9
:100C9000186800230022002105F04EFA0023FB73A0
:100CA00037E04C4B1B6807F10C010022184605F099
:100CB000E3FB484B1B6807F10B010022184605F0C7
:100CC000DBFB3B7B002B02D0FB7A002B0ED13B7B66
:100CD000002B02D03B7B042B05D9FB7A002B05D0DF
:100CE000FB7A042B02D8FB7B002B0FD1394B186801
:100CF00007F10C010023002205F01EFA354B18689D
:100D000007F10B010023002205F016FA7B7B01336B
:100D10007B737B7B0F2BC4D900237B73FB7A052B62
:100D20000CBF01230023DAB23B7B062B0CBF01234F
:100D30000023DBB21343DBB2002B06D13B7B052B38
:100D400003D0FB7A062B40F09C803B7B002B02D02B
:100D50003B7B042B07D9FB7A002B00F09280FB7AB7
:100D6000042B00F28E801E4B186800230022002105
:100D700005F0E2F9FB7A052B02D0FB7A062B08D1AD
:100D8000184B186807F10B010023002205F0D4F975
:100D900007E0114B186807F10B010023002205F052
:100DA000CBF93B7B052B02D03B7B062B08D10D4BAF
:100DB000186807F10C010023002205F0BDF907E0D7
:100DC000054B186807F10C010023002205F0B4F967
:100DD00052E000BF500600205C0600206C06002098
:100DE0007406002060060020304B1B6807F10C01E0
:100DF0000022184605F040FB2C4B1B6807F10B0145
:100E00000022184605F038FBFB7A052B0CBF0123A6
:100E10000023DAB23B7B062B0CBF01230023DBB29D
:100E20001343DBB2002B05D13B7B052B02D0FB7AB1
:100E3000062B0ED13B7B002B02D03B7B042B05D92C
:100E4000FB7A002B05D0FB7A042B02D8FB7B002B0E
:100E50000FD1164B186807F10C010023002205F092
:100E60006BF9124B186807F10B010023002205F003
:100E700063F97B7B01337B737B7B0F2BB4D900231E
:100E80007B730B4B1B6807F10C014FF0FF321846C8
:100E900005F0F2FABB7B0133BB73BB7B1E2B7FF4E7
:100EA000A1AE0023BB730123FB739BE65006002019
:100EB0004406002080B586B000AF7860544BB3F98B
:100EC0000C30FB75524BB3F90E30BB7500237B75AC
:100ED000504B186800234FF0FF324F4905F02CF9B2
:100EE0004E4B5B88C3F580533B614C4B1B88C3F56D
:100EF0008053FB60FB7D1AB2454B1A82BB7D1AB250
:100F0000434B5A823B69B3F5E16F14D2FB7D013B41
:100F1000FB753F4B424A043392E8030083E8030029
:100F20003B4B01221A77FB7D002B01D19623FB75E9
:100F300001237B751BE03B6940F6D862934216D9CA
:100F4000FB7D962B0CD8FB7D0133FB75304B354A6E
:100F5000043392E8030083E803002D4B00221A7744
:100F6000FB7D962B01D90023FB7501237B75FB6864
:100F7000B3F5E16F17D2BB7D002B0CD0BB7D013BDD
:100F8000BB75234B284A043392E8030083E803002F
:100F90001F4B03221A77BB7D002B01D17723BB7532
:100FA00001237B751BE0FB6840F6D862934216D99B
:100FB000BB7D792B0CD8BB7D0133BB75144B1B4A11
:100FC000043392E8030083E80300114B02221A77EE
:100FD000BB7D772B01D90023BB7501237B75FB7D7E
:100FE0001AB20B4B9A81BB7D1AB2094BDA817B7D19
:100FF000002B07D0074B186800234FF0FF3206493B
:1010000005F09AF800237B75142005F0EBFF67E7E5
:1010100098060020480600209C060020BC06002000
:101020005C0400200C040020340400208404002010
:1010300080B5AAB000AF78600023A7F892300023F3
:10104000A7F8A230BC4B1B6807F108014FF0FF3234
:10105000184605F011FAB94B186807F1080100238A
:101060004FF0FF3205F068F8B44B186807F1080339
:1010700003F1200100234FF0FF3205F05DF8AF4B84
:10108000186807F1080303F1400100234FF0FF3215
:1010900005F052F8A94B186807F1080303F1600145
:1010A00000234FF0FF3205F047F8A54B1B6807F10E
:1010B00090010022184605F0DFF9C7F89800D7F82C
:1010C0009830012B4DD197F89030FF2B11D19C4BCC
:1010D0001B6807F190014FF0FF32184605F0CCF97C
:1010E00097F89030013B5B01A8333B44A03B0122C1
:1010F0001A7097F89030013B5B01A8333B44A03B4A
:101100001A7897F89030013B013AD2B25B01A833CC
:101110003B44A03B1A7097F89030013B5B01A83329
:101120003B44A03B1B78002B1BD197F89030013B30
:101130005B01A8333B449E3B00221A7097F8903025
:10114000013B5B01A8333B44833B1B7887F891301C
:101150007C4B186807F1910100234FF0FF3204F037
:10116000EBFF794B1B6807F192010022184605F04E
:1011700083F9C7F89400D7F89430012B04D1B7F85D
:10118000A2300133A7F8A230B7F8A2300A2B40F002
:1011900083810023A7F8A230002387F8A03076E1EE
:1011A00097F8A0305B01A8333B449E3B1B78002B93
:1011B00040F0688197F8A03007F108025B011A44FB
:1011C00097F8A0300133DBB21946104600F02EFA32
:1011D00097F8A0305B01A8333B449E3B01221A7074
:1011E0005A4B1B881A46920013445B009AB2574B25
:1011F0005B881946DB00CB1A9BB213449BB2A7F85D
:101200009230B7F8923003F00303032B00F2DE8034
:1012100001A252F823F000BF291200088112000831
:10122000D3120008611300089F2387F8A130B7F894
:101230009230DBB203F07F0387F8A730B7F8923023
:10124000DBB203F00103DBB2023BDBB287F8A6306E
:10125000B7F892203E4BA3FB021359080B465B00E4
:101260000B44D31A9BB2DBB2013BDBB287F8A5304B
:10127000384A07F1880392E8030083E80300B9E0E5
:10128000022387F8A130B7F89230DBB203F07F0376
:1012900087F8A730B7F892305BB203F0010387F804
:1012A000A630B7F892202A4BA3FB021359080B462D
:1012B0005B000B44D31A9BB2DBB2013BDBB287F875
:1012C000A530254A07F1880392E8030083E803006C
:1012D00090E0B7F89220214BA3FB0213D9090B46EB
:1012E0009B000B445B01D31A9BB287F8A1307C238F
:1012F00087F8A730B7F89220154BA3FB02135908C3
:101300000B465B000B44D31A9BB2DBB2013BDBB252
:1013100087F8A630B7F89230DBB203F00103DBB2F6
:10132000023BDBB287F8A5300B4A07F1880392E84D
:10133000030083E803005DE0580600204806002013
:101340005C0600204C06002044060020BC0600205D
:10135000ABAAAAAA0403002074030020CDCCCCCCF5
:10136000B7F89220AC4BA3FB0213D9090B469B00A4
:101370000B445B01D31A9BB287F8A130022387F894
:10138000A730B7F89220A54BA3FB021359080B46D0
:101390005B000B44D31A9BB2DBB2013BDBB287F894
:1013A000A630B7F892209D4BA3FB021359080B46B9
:1013B0005B000B44D31A9BB287F8A530984A07F11B
:1013C000880392E8030083E8030013E0032387F80F
:1013D000A130782387F8A730012387F8A630FE23B1
:1013E00087F8A5308E4A07F1880392E8030083E866
:1013F000030000BF97F8A0305B01A8333B44983B43
:101400001A4607F1880393E8030082E8030097F87F
:10141000A03097F8A12012B25B01A8333B44903B67
:101420001A8097F8A03097F8A72012B25B01A83372
:101430003B448E3B1A8097F8A03097F8A12012B257
:101440005B01A8333B448C3B1A8097F8A03097F897
:10145000A72012B25B01A8333B448C3B1A8097F85B
:10146000A0305B01A8333B449D3B97F8A6201A703F
:1014700097F8A0305B01A8333B449C3B97F8A5202C
:101480001A7009E097F8A030013387F8A03097F878
:10149000A030032B7FF684AE002387F89F30B2E0A4
:1014A00097F89F305B01A8333B449E3B1B78002B91
:1014B00000F0A48097F89F2097F89F305201A8323F
:1014C0003A44903AB2F900205B01A8333B448C3B8C
:1014D0001A8097F89F2097F89F305201A8323A441B
:1014E0008E3AB2F900205B01A8333B448A3B1A8054
:1014F00097F89F305B01A8333B44903BB3F9003031
:101500009AB297F89F305B01A8333B449D3B93F917
:1015100000309BB213449AB297F89F3012B25B012D
:10152000A8333B44903B1A8097F89F305B01A83367
:101530003B448E3BB3F900309AB297F89F305B0181
:10154000A8333B449C3B93F900309BB213449AB2BE
:1015500097F89F3012B25B01A8333B448E3B1A8050
:1015600097F89F305B01A8333B44903BB3F90030C0
:10157000932B1DDC97F89F305B01A8333B44903BD5
:10158000B3F90030022B13DD97F89F305B01A833CD
:101590003B448E3BB3F900307B2B09DC97F89F303E
:1015A0005B01A8333B448E3BB3F90030022B17DCC0
:1015B00097F89F305B01A8333B449E3B00221A7092
:1015C00097F89F300133DBB287F89130154B1868DC
:1015D00007F1910100234FF0FF3204F0ADFD0DE063
:1015E000114B186897F89F3007F108025B01083328
:1015F000D11800234FF0FF3204F09EFD97F89F3082
:10160000013387F89F3097F89F30032B7FF648AF60
:10161000FA2005F0E7FC48E5CDCCCCCCABAAAAAAD1
:10162000E40300204C0600204806002080B483B06C
:1016300000AF78600B46FB70FB78042B1CD0042BAA
:1016400025DC012B02D0022B0BD020E07B68244A42
:10165000083392E8030083E803007B6801225A778D
:1016600015E07B681F4A083392E8030083E8030013
:101670007B6802225A770AE07B681B4A083392E8AB
:10168000030083E803007B6804225A7700BF7B686D
:101690004FF6FF729A617B6800221A777B680022FE
:1016A0009A827B680022DA827B6800221A827B6839
:1016B00000225A827B680222DA707B6802221A7149
:1016C0007B6802225A707B6800229A707B68022233
:1016D0001A7000BF0C37BD465DF8047B704700BF31
:1016E0000403002074030020E403002080B596B0BA
:1016F00000AF7860BF4B1B6807F10C014FF0FF3261
:10170000184604F0B9FE002387F85730002387F805
:101710005630002387F85430002387F85330B7F948
:101720001830DBB2BB72B7F91A3087F85230B7F90C
:10173000303087F85130B7F9323087F85530AE4B3A
:10174000186807F10C03191D00234FF0FF3204F055
:10175000F3FCA94B186807F10C0303F11C010023EB
:101760004FF0FF3204F0E8FCA44B1B6807F10B01BB
:101770000022184604F080FEF864FB6C012B12D1A5
:10178000FB7A062B03D1002387F8403002E00023C8
:1017900087F841309A4B186807F10B0100234FF08E
:1017A000FF3204F0C9FC97F8403087F8543097F8BE
:1017B000413087F8533097F85430002B04D197F814
:1017C0005330002B00F0AA8097F85430002B4AD0F9
:1017D00097F84230002B02D0012B1CD043E0BB7A9B
:1017E0001BB2BB83BB7A0133DBB2BB72BB7A1BB2C9
:1017F0003B83BB7A9E2B03D9002387F8403032E02D
:101800007D4B186807F10C03191D00234FF0FF32C0
:1018100004F092FC27E0BB7A1BB2BB83BB7A013B8E
:10182000DBB2BB72BB7A1BB23B83BB7A002B0FD1FE
:10183000002387F8403097F82530FB72704B18680A
:1018400007F10B0100234FF0FF3204F075FC09E0B3
:10185000694B186807F10C03191D00234FF0FF3284
:1018600004F06AFC00BF97F85330002B00F00881A9
:1018700097F84330022B02D0032B21D000E197F8D8
:1018800055301BB2FB8697F85530013387F8553039
:1018900097F855301BB27B8697F85530A02B03D1B3
:1018A000002387F8413038E0534B186807F10C03E8
:1018B00003F11C0100234FF0FF3204F03DFC2CE04B
:1018C00097F855301BB2FB8697F85530013B87F8E7
:1018D000553097F855301BB27B8697F85530002B62
:1018E0000FD1002387F8413097F83D30FB72444B0D
:1018F000186807F10B0100234FF0FF3204F01CFCC5
:101900000AE03D4B186807F10C0303F11C010023AA
:101910004FF0FF3204F010FC00BFB1E0394B1B6800
:1019200007F10A010022184604F0A6FDB864BB6C5A
:10193000012B09D197F85730013387F8573097F8C2
:101940005630013387F8563097F85730142B40F053
:101950009780002387F857302B4B1B7F87F8473041
:1019600097F84730032B00F28B8001A252F823F046
:1019700081190008BB1900080D1A0008471A000851
:10198000012387F84030002387F842301E4BB3F91B
:101990000C30DBB21233DBB2BB721B4BB3F90E302F
:1019A000DBB2053387F8523097F852301BB27B8395
:1019B00097F852301BB2FB8362E0012387F8403076
:1019C000012387F84230104BB3F90C30DBB2063BF1
:1019D000DBB2BB720C4BB3F90E30DBB2053387F8C8
:1019E000523097F852301BB27B8397F852301BB2BB
:1019F000FB8345E0540600204806002060060020D6
:101A00004C0600204406002098060020012387F899
:101A10004130022387F843301B4BB3F90C30DBB263
:101A2000053387F85130184BB3F90E30DBB212335F
:101A300087F8553097F851301BB23B8697F85130F4
:101A40001BB2BB861CE0012387F84130032387F8D3
:101A500043300D4BB3F90C30DBB2053387F851300E
:101A6000094BB3F90E30DBB2093B87F8553097F8D4
:101A700051301BB23B8697F851301BB2BB8600BF7A
:101A80000E2005F0AFFA6FE69806002080B588B00A
:101A900004AF444B1B684FF0FF31184604F0CEFDF5
:101AA000B860414B02221A700023FB700123FB73C4
:101AB00073E03E4B002202924FF6FF7201925A6889
:101AC00000921B683A4A0021002001F041F8364B91
:101AD0001B781946354B002202924FF6FF72019295
:101AE0005A6800921B680A460021282001F076F906
:101AF000FB7819462D4B002202924FF6FF7201929D
:101B00005A6800921B680A469621002001F066F987
:101B1000284B1B684FF0FF31184604F08FFD264B11
:101B20001B680021184604F089FD78607B68012B52
:101B300003D1FB780133DBB2FB701A4B1B68002129
:101B4000184604F07BFDB860BB68012B05D1164B2D
:101B50001B78013BDAB2144B1A70134B1B78002B25
:101B600010D1164B1868F91C00234FF0FF3204F017
:101B7000E3FA134B186800230022002104F0DCFA7A
:101B80000023FB730B4B186800230022002104F094
:101B9000D3FA4FF4967005F025FAFB7B002B88D121
:101BA0007FE700BF6C06002098060020A4040020F8
:101BB000489800087806002074060020640600207B
:101BC0006806002080B588B004AF78600023FB73FE
:101BD0001F4B1B68184605F03BFA1E4B1B68184646
:101BE00005F036FA1C4B1B68184605F031FAFB7BF2
:101BF000022B12D0022B18DC002B02D0012B05D0B7
:101C000013E000F02FF80123FB7320E000F068F8E8
:101C10000346BB730223FB7319E0BB7B9BB21846E0
:101C200000F066F90023FB7311E00C4B00220292D6
:101C30004FF4784201925A6800921B68084A3B218F
:101C4000302000F085FF4FF0FF3005F0CBF9CEE7F4
:101C5000280600202C06002030060020A4040020C6
:101C60005098000880B582B002AF1A4B4FF6FF7251
:101C700000920CCB0921122001F03DF8164B4FF6D3
:101C8000FF7200920CCB0921702001F034F8134B45
:101C90004FF6FF7200920CCB2E21002001F02BF8A2
:101CA0000D4B4FF6FF7200920CCB5821122001F021
:101CB00022F8084B4FF6FF7200920CCB582170208F
:101CC00001F019F841F2883005F08CF900BFBD46EB
:101CD00080BD00BF04030020E40300209402002024
:101CE00080B5B2B002AF0023A7F8BE30764B022217
:101CF0001A70754B01221A76734B4FF6FF725A61B8
:101D0000714B00225A76704B704A043392E80300FC
:101D100083E803006C4B00221A826B4B00225A822C
:101D2000694B1B79C3F1A003DA0F13445B101AB29D
:101D3000654B9A81644B5B79C3F18003DA0F1344DE
:101D40005B101AB2604BDA81012387F884300023DC
:101D500087F8B830002387F8B930002387F8BA3005
:101D6000002387F8BB30002387F89C304FF4FC63D6
:101D7000C7F89830564A07F1880392E8030083E8D1
:101D80000300062387F89D300023A7F89430002332
:101D9000A7F896300023A7F890300023A7F89230D8
:101DA000002387F8B4304FF4FC63C7F8B030484ADA
:101DB00007F1A00392E8030083E80300052387F8F6
:101DC000B5300023A7F8AC300023A7F8AE300023CD
:101DD000A7F8A8300023A7F8AA303E4B186807F1EF
:101DE00084010023002204F0A7F93B1D01211846BD
:101DF000FFF71CFC3B1D203302211846FFF716FCA1
:101E00003B1D403303211846FFF710FC3B1D603398
:101E100004211846FFF70AFC2F4B1868391D0023D0
:101E2000002204F089F90023009321238222092152
:101E3000122000F0BDFE002300932123A0222E21BA
:101E4000002000F0B5FE00230093212382225821B8
:101E5000122000F0ADFE214B1B68184605F0A0F9DA
:101E60001F4B1B68184605F09BF91E4B1B68184654
:101E700005F096F91C4B1B6807F1BE014FF0FF32CD
:101E8000184604F0F9FA194B1B684FF0FF31184659
:101E900004F0D4FB134B1B68184605F0D9F8104B1F
:101EA0001B68184605F0D4F80C4B1B68184605F063
:101EB000CFF84FF4FA7005F095F8B7F8BE30184631
:101EC000C037BD4680BD00BF980600200C0400202E
:101ED0009C040020540600205806002030060020F4
:101EE000280600202C06002064060020680600203A
:101EF00080B586B004AF0346FB80002000F0CCFE26
:101F0000002300930E23A0222D21002000F050FE7C
:101F10004FF6FF732D22A021002000F0CEFE4FF4DB
:101F2000FA7005F05FF8304B002202924FF6FF7214
:101F300001925A6800921B682C4A3021342000F02C
:101F400007FE4FF4FA7005F04DF84FF6FF733B2291
:101F5000A021002000F0B1FE234B002202924FF698
:101F6000FF7201925A6800921B68214A19210C20C5
:101F700000F0EEFDF9881C4B002202924FF6FF7232
:101F800001925A6800921B680A461921442000F009
:101F900025FF184B4FF6FF7200920CCB4121002019
:101FA00000F0A9FE4FF4FA7005F01CF80E4B002269
:101FB00002924FF6FF7201925A6800921B680E4A15
:101FC0006E210F2000F0C4FD00BF4FF400410B480C
:101FD00002F06AFB0346002BF7D1002000F05CFE04
:101FE00000BF0837BD4680BDA404002070980008DB
:101FF0007C9800089402002088980008000802409D
:1020000080B58CB004AF01F01BF900F02DFA00F0A0
:1020100049FB00F027FB00F0EFFA00F08DFA642096
:1020200001F050F900F0CCFC002000F035FE022257
:10203000B049B14801F0AEF903F058FD0322002188
:10204000012004F01AF80346AC4A1360AB4B1B683E
:10205000002B06D0A94B186800230022002104F0B1
:102060006BF8A64B1B680021184604F0E7FA032220
:102070000021012004F001F80346A14A1360A04B9F
:102080001B68002B06D09E4B1868002300220021FD
:1020900004F052F89A4B1B680021184604F0CEFA5F
:1020A00003220021012003F0E8FF0346954A136054
:1020B000944B1B68002B06D0924B1868002300221B
:1020C000002104F039F88F4B1B680021184604F0FA
:1020D000B5FA03220021012003F0CFFF03468A4A0C
:1020E0001360894B1B68002B06D0874B18680023B0
:1020F0000022002104F020F8834B1B6800211846C1
:1021000004F09CFA03220021012003F0B6FF0346ED
:102110007E4A13607D4B1B68002B06D07B4B1868F2
:1021200000230022002104F007F8002201210320EF
:1021300003F0A3FF0346764A13600022182108200B
:1021400003F09BFF0346734A13600022012108201D
:1021500003F093FF0346704A136000220121102010
:1021600003F08BFF03466D4A1360002238210120E3
:1021700003F083FF03466A4A136000228021012096
:1021800003F07BFF0346674A13600022012102200F
:1021900003F073FF0346644A13600022012101200B
:1021A00003F06BFF0346614A136000220121012006
:1021B00003F063FF03465E4A13605E4B01932223E4
:1021C000009300234FF480625B495C4804F02CFDCF
:1021D000F861002301932123009300234FF48062D0
:1021E0005749584804F020FDB861574B019320230C
:1021F0000093002380225549554804F015FD78616D
:10220000544B0193182300930023802252495348D2
:1022100004F00AFD3861524B019318230093002308
:1022200080225049504804F0FFFCF8604F4B019366
:1022300018230093002380224D494E4804F0F4FCFB
:10224000B8604D4B019318230093002380224B4923
:102250004B4804F0E9FC78604A4B01931823009343
:10226000002380224849494804F0DEFC38607B693D
:10227000012B0DD0464B002202924FF4784201927E
:102280005A6800921B68434A0021002000F060FC5D
:10229000FB69012B0DD03E4B002202924FF4784295
:1022A00001925A6800921B683B4A1821002000F0F6
:1022B0004FFC3B69012B0DD0354B002202924FF4AD
:1022C000784201925A6800921B68344A2421002007
:1022D00000F03EFCFB68012B66D02D4B00220292E1
:1022E0004FF4784201925A6800921B682C4A3021C0
:1022F000002057E0B80600202805002068060020CE
:102300006C0600207006002074060020780600206D
:1023100044060020480600204C06002050060020FD
:1023200054060020580600205C06002060060020AD
:10233000640600202C0600209C9800080D0600086A
:10234000B0980008C51B000828060020C0980008A7
:102350008D1A000834060020CC98000831100008BF
:1023600030060020D8980008B50E0008400600206E
:10237000E4980008B50B000838060020EC98000827
:10238000ED1600083C060020F8980008D905000862
:10239000A404002004990008189900082C9900084A
:1023A0004499000800F0D4FB7B68012B0DD0264B2C
:1023B000002202924FF4784201925A6800921B6800
:1023C000224A3C21002000F0C3FB3B68012B0DD0CA
:1023D0001D4B002202924FF4784201925A680092FB
:1023E0001B681B4A4821002000F0B2FBBB69012B8F
:1023F0000DD0154B002202924FF4784201925A6898
:1024000000921B68134A5421002000F0A1FBBB6816
:10241000012B0DD00C4B002202924FF47842019216
:102420005A6800921B680C4A5421002000F090FB6F
:102430000A4A00210A4803F0A3FB0346094A136035
:1024400003F078FB00BFFDE7A404002054990008C6
:1024500064990008789900088899000824A1000868
:10246000AD2700087C06002080B594B000AF07F1CE
:10247000200330220021184606F0A6FD07F10C03C8
:1024800000221A605A609A60DA601A610023BB6009
:10249000274B1B6C264A43F080531364244B1B6C60
:1024A00003F08053BB60BB6800237B60214B1B683B
:1024B000204A43F4404313601E4B1B6803F440431F
:1024C0007B607B6802233B620123FB6210233B633A
:1024D0000223BB630023FB6310233B64C0237B64A4
:1024E0000223BB640423FB6407F12003184602F0B7
:1024F00027F90346002B01D000F07AF90F23FB6087
:1025000002233B6100237B614FF48053BB610023B6
:10251000FB6107F10C030321184602F089FB034617
:10252000002B01D000F064F900BF5037BD4680BDDC
:10253000003802400070004080B584B000AF3B46D8
:1025400000221A605A609A60DA60284B284A1A60A2
:10255000264B4FF480325A60244B00229A60234B62
:1025600001221A61214B01221A76204B002283F8A6
:1025700020201E4B0022DA621C4B1E4A9A621B4B23
:102580000022DA60194B0222DA61184B012283F82B
:102590003020164B01225A61144800F0B7FE034662
:1025A000002B01D000F024F900233B6001237B6065
:1025B0000723BB603B4619460C4800F0EFFF03467B
:1025C000002B01D000F014F901233B6002237B6053
:1025D0003B461946054800F0E1FF0346002B01D0B9
:1025E00000F006F900BF1037BD4680BD2805002069
:1025F000002001400100000F80B500AF174B184AC2
:102600001A60164B4FF482725A60144B00229A6083
:10261000124B0022DA60114B00221A610F4B00228C
:102620005A610E4B4FF400729A610C4B1022DA6122
:102630000A4B00221A62094B00225A62074B002201
:102640009A62064B0A22DA62044802F0EFFC034663
:10265000002B01D000F0CCF800BF80BDD0050020D9
:102660000030014080B582B000AF00237B600C4B8E
:102670001B6B0B4A43F480031363094B1B6B03F47E
:1026800080037B607B6800220521382001F0EEFA90
:10269000382001F007FB00BF0837BD4680BD00BFF2
:1026A0000038024080B58AB000AF07F11403002261
:1026B0001A605A609A60DA601A6100233B61384BF5
:1026C0001B6B374A43F004031363354B1B6B03F05A
:1026D00004033B613B690023FB60314B1B6B304AB9
:1026E00043F0800313632E4B1B6B03F08003FB60EE
:1026F000FB680023BB602A4B1B6B294A43F0010394
:102700001363274B1B6B03F00103BB60BB68002303
:102710007B60234B1B6B224A43F002031363204B65
:102720001B6B03F002037B607B6800224FF40051B7
:102730001C4801F0D1FF00224FF4E0411A4801F09B
:10274000CBFF4FF400537B610123BB610023FB618E
:1027500000233B6207F114031946124801F020FEE2
:102760004FF400437B610023BB610123FB6107F150
:10277000140319460B4801F013FE4FF4E0437B614C
:102780000123BB610023FB6100233B6207F11403BB
:102790001946054801F004FE00BF2837BD4680BD3C
:1027A00000380240000802400004024080B582B0B8
:1027B00000AF78604FF40051034801F0A6FFC82035
:1027C00003F070FA00BFF5E70008024080B582B060
:1027D00000AF78607B681B68044A934201D100F027
:1027E00051FD00BF0837BD4680BD00BF0008004056
:1027F00080B400AF72B600BF00BFFDE780B500AF88
:1028000000224FF48051024801F066FF00BF80BDF6
:102810000004024080B500AF01224FF4805102480D
:1028200001F05AFF00BF80BD0004024080B500AF38
:1028300000224FF40051074801F04EFF052000F040
:1028400041FD01224FF40051024801F045FF00BF55
:1028500080BD00BF0004024080B582B000AF0346D7
:10286000FB7100224FF48041064801F035FFF91D4D
:102870004FF0FF330122044802F061FC00BF08372B
:10288000BD4680BD00040240D005002080B582B066
:1028900000AF7860396001224FF48041074801F0B1
:1028A0001BFF3B689AB24FF0FF337968044802F08F
:1028B00046FC00BF0837BD4680BD00BF0004024093
:1028C000D005002080B584B000AF78607B685A1CCA
:1028D0007A601B78FB7334E07B685A1C7A601B7843
:1028E000FB72FB7A1846FFF7B7FF7B685A1C7A60C9
:1028F0001B78BB72BB7A9BB203F08003BB81BB7AAF
:1029000003F07F03BB72BB7A002B08D0BB7A194659
:102910007868FFF7BBFFBB7A7A6813447B60BB899A
:10292000002B0ED07B685A1C7A601B78BB81BB8958
:10293000FF2B02D14FF4FA73BB81BB89184600F01C
:10294000C1FCFB7B5A1EFA73002BC5D100BF00BF30
:102950001037BD4680BD90B585B000AF044608462F
:1029600011461A462346FB710346BB710B467B7129
:1029700013463B712A20FFF76FFF00233B73FB795F
:102980007B730023BB737B79FB7307F10C0304217A
:102990001846FFF77BFF2B20FFF75EFFBB797B73A9
:1029A0003B79FB7307F10C0304211846FFF76EFF18
:1029B0002C20FFF751FF00BF1437BD4690BD00002B
:1029C00080B500AFFFF71AFFFFF730FF0648FFF7AB
:1029D00079FF0648FFF776FF0548FFF773FFFFF71B
:1029E00019FF00BF80BD00BF48A1000884A10008F6
:1029F00094A1000880B584B000AF0346FB800B466D
:102A0000BB8013467B80FB889F2B23D8BB887F2B02
:102A100020D8FFF7F3FEFB88D8B2BB88D9B2FB8879
:102A2000DBB20133DAB2BB88DBB20133DBB2FFF7D2
:102A300092FF7B881B0A9BB2DBB23B737B88DBB2C5
:102A40007B7307F10C0302211846FFF71FFFFFF706
:102A5000E1FE00E000BF1037BD4680BD82B090B5FA
:102A600089B000AF7B630346FB800B46BB801346F7
:102A7000FB70FFF7C3FEFB88D8B2BB88D9B2FB88D6
:102A8000DAB297F834301344DBB2013BDCB2BB88D6
:102A9000DAB297F835301344DBB2013BDBB22246A1
:102AA000FFF759FF0023FB6143E0BA6BFB78203B43
:102AB00097F8351001FB03F31946FB690B445B00E3
:102AC00013441B887B610023BB6129E07A69BB69E1
:102AD00002FA03F303F40043002B0ED0BB8F1B0A52
:102AE0009BB2DBB23B74BB8FDBB27B7407F110038C
:102AF00002211846FFF7CAFE0FE0B7F840301B0A64
:102B00009BB2DBB23B73B7F84030DBB27B7307F1AB
:102B10000C0302211846FFF7B9FEBB690133BB6104
:102B200097F834301A46BB699342CFD3FB6901331F
:102B3000FB6197F835301A46FB699342B5D3FFF72E
:102B400069FE00BF2437BD46BDE8904002B0704723
:102B500082B080B586B004AF3A607B610346FB80EB
:102B60000B46BB80FFF74AFE14E03B681A78B98831
:102B7000F8883B8C0293BB8B0193BB6900937B6904
:102B8000FFF76CFF3B7D1A46FB881344FB803B68D4
:102B900001333B603B681B78002BE6D1FFF73AFE20
:102BA00000BF0837BD46BDE8804002B07047000056
:102BB00090B585B000AF0446084611461A46234634
:102BC000FB800346BB800B467B8013463B80FB8823
:102BD0009F2B58D8BB887F2B55D8FA887B88134405
:102BE000A02B03DDFB88C3F1A0037B80BA883B8860
:102BF0001344802B03DDBB88C3F180033B80FFF7C8
:102C0000FDFDFB88D8B2BB88D9B2FB88DAB27B88DD
:102C1000DBB21344DBB2013BDCB2BB88DAB23B88E7
:102C2000DBB21344DBB2013BDBB22246FFF793FE7B
:102C30003B8C1B0A9BB2DBB23B733B8CDBB27B73DE
:102C400001224FF48041124801F046FD3B88BB80D1
:102C500013E07B88FB800AE007F10C014FF0FF33A3
:102C600002220C4802F06BFAFB88013BFB80FB88D8
:102C7000002BF1D1BB88013BBB80BB88002BE8D186
:102C8000FFF7C8FD00E000BF1437BD4690BD00BF90
:102C900000040240D005002080B584B002AF034696
:102CA000FB80FB8800938023A02200210020FFF7F7
:102CB0007FFF00BF0837BD4680BD80B586B000AF3E
:102CC000F860B9607A607B80FB687B610AE07B69B1
:102CD0009BB27A6891B27A881846FFF78BFE7B69BF
:102CE00001337B617A69BB689A42F0D300BF00BFB1
:102CF0001837BD4680BD80B58CB000AFF860B960B4
:102D0000394681E80C000023FB613B7803F00F0398
:102D10003B613B781B09DBB2BB613B69002B02D0F6
:102D2000BB690133BB6100237B624AE010237B61F6
:102D300000233B620023BB6238E0BB69013BBA6AF7
:102D40009A4204D13B69002B01D03B697B6100238F
:102D5000FB6224E07A68796ABB6A0B445B00134427
:102D60001B881A46FB6A02FA03F303F40043002BA4
:102D70000FD0FB689AB23B6A9BB2134498B2BB680F
:102D80009AB2FB699BB213449BB23A8F1946FFF784
:102D900031FE3B6A01333B62FB6A0133FB62FA6A34
:102DA0007B699A42D6D3BB6A0133BB62BA6ABB69FC
:102DB0009A42C2D3FB690133FB617A6ABB6913444F
:102DC0007B627B781A46BB6902FB03F37A6A9A42FC
:102DD000ACD300BF00BF3037BD4680BD82B080B5E8
:102DE0008CB004AFF860B9607A60FB6207F114033D
:102DF0007A680D49184606F0C5F8FB6898B2BB68BA
:102E000099B207F114023B8F0293BB8E01933B6B87
:102E10000093FB6AFFF79CFE00BF2037BD46BDE86C
:102E2000804002B0704700BF9C99000880B582B016
:102E300000AF00237B60124B5B6C114A43F480436C
:102E400053640F4B5B6C03F480437B607B6800230F
:102E50003B600B4B1B6C0A4A43F080531364084BD6
:102E60001B6C03F080533B603B6800220F216FF026
:102E7000010000F0FBFE00BF0837BD4680BD00BF6B
:102E80000038024080B58AB000AF786007F11403C3
:102E900000221A605A609A60DA601A617B681B68C7
:102EA0002F4A934257D100233B612E4B5B6C2D4A36
:102EB00043F4807353642B4B5B6C03F480733B616E
:102EC0003B690023FB60274B1B6B264A43F0010341
:102ED0001363244B1B6B03F00103FB60FB680323AC
:102EE0007B610323BB610023FB6107F114031946D7
:102EF0001D4801F055FA1D4B1D4A1A601B4B00225C
:102F00005A601A4B00229A60184B0022DA60174B65
:102F10004FF480621A61154B4FF400625A61134BF3
:102F20004FF400529A61114B4FF48072DA610F4BEB
:102F300000221A620D4B00225A620C4800F0C0FEBB
:102F40000346002B01D0FFF753FC7B68074A9A63C6
:102F5000064A7B68936300BF2837BD4680BD00BF2B
:102F600000200140003802400000024070050020AF
:102F70001064024080B58AB000AF786007F1140396
:102F800000221A605A609A60DA601A617B681B68D6
:102F9000194A93422BD100233B61184B5B6C174AB3
:102FA00043F480535364154B5B6C03F480533B61D3
:102FB0003B690023FB60114B1B6B104A43F001037C
:102FC00013630E4B1B6B03F00103FB60FB68A02334
:102FD0007B610223BB610023FB6103233B6205236A
:102FE0007B6207F114031946054801F0D9F900BFC7
:102FF0002837BD4680BD00BF003001400038024088
:103000000000024080B58EB000AF78600023FB6204
:103010000023BB620023FB60334B1B6C324A43F03E
:1030200004031364304B1B6C03F00403FB60FB6868
:1030300007F1100207F114031146184601F0C4FF0E
:103040003B6AFB62FB6A002B03D101F0A9FF7863A6
:1030500004E001F0A5FF03465B007B637B6B234A22
:10306000A2FB03239B0C013BBB62214B214A1A604C
:103070001F4B40F2E732DA601D4ABB6A53601C4BBB
:1030800000221A611A4B00229A60194B00229A61A1
:10309000174802F073FA034687F8333097F8333055
:1030A000002B1BD1124802F0C3FA034687F83330D5
:1030B00097F83330002B11D11E2000F0F3FD7B6810
:1030C0000F2B08D8002279681E2000F0CFFD0A4A95
:1030D0007B68136002E0012387F8333097F83330C0
:1030E00018463837BD4680BD0038024083DE1B439A
:1030F000C006002000080040B004002080B400AFEB
:1031000000BFFDE780B400AF00BFFDE780B400AFB3
:1031100000BFFDE780B400AF00BFFDE780B400AFA3
:1031200000BFFDE780B400AF00BFBD465DF8047B83
:103130007047000080B500AF024802F0DBFA00BF24
:1031400080BD00BFC006002080B500AF024800F07F
:10315000BDFE00BF80BD00BF7005002080B586B0F9
:1031600000AF7860144A154BD31A7B617B693B61D1
:10317000134B1B68002B02D1114B124A1A60104BE3
:103180001A687B6813443A699A4207D205F092FFA5
:1031900003460C221A604FF0FF3309E0084B1B680E
:1031A000FB60074B1A687B681344054A1360FB6891
:1031B00018461837BD4680BD0000022000040000FC
:1031C000080700204052002080B400AF064BD3F81F
:1031D0008830054A43F47003C2F8883000BFBD460A
:1031E0005DF8047B704700BF00ED00E0DFF834D0ED
:1031F000FFF7EAFF0C480D490D4A002302E0D458BE
:10320000C4500433C4188C42F9D30A4A0A4C002330
:1032100001E013600432A242FBD305F051FFFEF738
:10322000EFFE704700000220000000200C05002087
:1032300024A200080C05002040520020FEE70000F8
:1032400080B500AF0E4B1B680D4A43F4007313604A
:103250000B4B1B680A4A43F480631360084B1B68DE
:10326000074A43F480731360032000F0F4FC0F203E
:10327000FFF7C8FEFFF7DAFD0023184680BD00BF48
:10328000003C024080B400AF064B1B781A46064B48
:103290001B681344044A136000BFBD465DF8047BFD
:1032A000704700BFB40400200C07002080B400AFBA
:1032B000034B1B681846BD465DF8047B704700BF92
:1032C0000C07002080B584B000AF7860FFF7EEFFF8
:1032D000B8607B68FB60FB68B3F1FF3F05D00A4B29
:1032E0001B781A46FB681344FB6000BFFFF7DEFF44
:1032F0000246BB68D31AFA689A42F7D800BF00BFEB
:103300001037BD4680BD00BFB404002080B584B036
:1033100000AF78600023FB737B68002B01D1012391
:1033200033E07B681B6C002B09D17868FFF7AAFD9E
:103330007B6800225A647B68002283F83C207B680B
:103340001B6C03F01003002B18D17B681B6C23F45B
:10335000885323F0020343F002027B681A64786802
:1033600000F04EFA7B6800225A647B681B6C23F0E5
:10337000030343F001027B681A6401E00123FB733D
:103380007B68002283F83C20FB7B18461037BD4643
:1033900080BD000080B586B000AFF860B9607A608B
:1033A00000233B61FB6893F83C30012B01D10223E1
:1033B000CEE0FB68012283F83C20FB681B689B6819
:1033C00003F00103012B18D0FB681B689A68FB68A7
:1033D0001B6842F001029A605F4B1B685F4AA2FBC8
:1033E00003239A0C13465B0013443B6102E03B69E4
:1033F000013B3B613B69002BF9D1FB681B689B6873
:1034000003F48073B3F5807F07D1FB681B689A686B
:10341000FB681B6822F480729A60FB681B689B68DB
:1034200003F00103012B40F08680FB681B6C23F442
:10343000E06323F0010343F48072FB681A64FB68C5
:103440001B685B6803F48063002B07D0FB681B6C70
:1034500023F4405343F48052FB681A64FB681B6CEE
:1034600003F48053B3F5805F06D1FB685B6C23F0F7
:103470000602FB685A6402E0FB6800225A64FB689B
:10348000002283F83C20364B7B61FB689B6B354AFE
:10349000DA63FB689B6B344A1A64FB689B6B334AA4
:1034A000DA64FB681B686FF022021A60FB681B6815
:1034B0005A68FB681B6842F080625A60FB681B68B0
:1034C0009A68FB681B6842F480729A60FB68986B8C
:1034D000FB681B684C331946BA687B6800F09EFC99
:1034E0007B695B6803F01F03002B0FD1FB681B682F
:1034F0009B6803F04053002B29D1FB681B689A6836
:10350000FB681B6842F080429A6020E0FB681B6801
:10351000174A93421BD1FB681B689B6803F040531A
:10352000002B14D1FB681B689A68FB681B6842F08B
:1035300080429A600BE0FB681B6C43F01002FB6852
:103540001A64FB685B6C43F00102FB685A64002359
:1035500018461837BD4680BDAC04002083DE1B43EF
:1035600000230140F9390008B33A0008CF3A0008B7
:103570000020014080B483B000AF786000BF0C37FA
:10358000BD465DF8047B704780B483B000AF7860BF
:1035900000BF0C37BD465DF8047B704780B485B032
:1035A00000AF786039600023BB607B6893F83C30E3
:1035B000012B01D1022313E17B68012283F83C2017
:1035C0003B681B68092B25D97B681B68D9683B6859
:1035D0001B689BB21A4613465B0013441E3B07222E
:1035E00002FA03F3DA437B681B680A40DA607B68FF
:1035F0001B68D9683B689A683B681B689BB2184691
:1036000003465B0003441E3B9A407B681B680A43E9
:10361000DA6022E07B681B6819693B681B689BB213
:103620001A4613465B001344072202FA03F3DA43F7
:103630007B681B680A401A617B681B6819693B68D4
:103640009A683B681B689BB2184603465B000344BC
:103650009A407B681B680A431A613B685B68062BCB
:1036600024D87B681B68596B3B685A6813469B00DB
:103670001344053B1F2202FA03F3DA437B681B68FD
:103680000A405A637B681B68596B3B681B689BB296
:1036900018463B685A6813469B001344053B00FAE2
:1036A00003F27B681B680A435A634CE03B685B6823
:1036B0000C2B24D87B681B68196B3B685A6813462F
:1036C0009B001344233B1F2202FA03F3DA437B6877
:1036D0001B680A401A637B681B68196B3B681B6890
:1036E0009BB218463B685A6813469B001344233B21
:1036F00000FA03F27B681B680A431A6323E07B68C5
:103700001B68D96A3B685A6813469B001344413BC7
:103710001F2202FA03F3DA437B681B680A40DA626D
:103720007B681B68D96A3B681B689BB218463B687C
:103730005A6813469B001344413B00FA03F27B682E
:103740001B680A43DA62294BFB607B681B68284AC6
:1037500093420FD13B681B68122B0BD1FB685B684F
:1037600023F40002FB685A60FB685B6843F4800244
:10377000FB685A607B681B681D4A93422BD13B68EB
:103780001B681C4A934203D03B681B68112B22D153
:10379000FB685B6823F48002FB685A60FB685B6827
:1037A00043F40002FB685A603B681B68114A93426D
:1037B00011D1114B1B68114AA2FB03239A0C13462B
:1037C0009B0013445B00BB6002E0BB68013BBB6035
:1037D000BB68002BF9D17B68002283F83C200023D2
:1037E00018461437BD465DF8047B7047002301403E
:1037F0000020014012000010AC04002083DE1B43B7
:1038000080B485B000AF7860794BFB60FB685B6883
:1038100023F44032FB685A60FB685A687B685B6837
:103820001A43FB685A607B681B685A687B681B6890
:1038300022F480725A607B681B6859687B681B6938
:103840001A027B681B680A435A607B681B685A68C7
:103850007B681B6822F040725A607B681B6859685D
:103860007B689A687B681B680A435A607B681B68A0
:103870009A687B681B6822F400629A607B681B6808
:1038800099687B68DA687B681B680A439A607B6882
:103890009B6A584A934222D07B681B689A687B686F
:1038A0001B6822F070629A607B681B6899687B686D
:1038B0009A6A7B681B680A439A607B681B689A68EF
:1038C0007B681B6822F040529A607B681B6899688D
:1038D0007B68DA6A7B681B680A439A600FE07B6842
:1038E0001B689A687B681B6822F070629A607B682C
:1038F0001B689A687B681B6822F040529A607B685C
:103900001B689A687B681B6822F002029A607B68D9
:103910001B6899687B681B7E5A007B681B680A439A
:103920009A607B6893F82030002B1BD07B681B6863
:103930005A687B681B6842F400625A607B681B68A7
:103940005A687B681B6822F460425A607B681B6877
:1039500059687B685B6A013B5A037B681B680A43B2
:103960005A6007E07B681B685A687B681B6822F412
:1039700000625A607B681B68DA6A7B681B6822F405
:103980007002DA627B681B68D96A7B68DB69013B7D
:103990001A057B681B680A43DA627B681B689A68B1
:1039A0007B681B6822F400729A607B681B689968C8
:1039B0007B6893F830305A027B681B680A439A6030
:1039C0007B681B689A687B681B6822F480629A6037
:1039D0007B681B6899687B685B699A027B681B68D7
:1039E0000A439A6000BF1437BD465DF8047B7047F8
:1039F000002301400100000F80B584B000AF786063
:103A00007B689B6BFB60FB681B6C03F05003002B17
:103A10003CD1FB681B6C43F40072FB681A64FB68C2
:103A20001B689B6803F04053002B2BD1FB681B7E67
:103A3000002B27D1FB681B68DB6A03F47003002BA3
:103A400006D0FB681B689B6803F48063002B19D1C8
:103A5000FB681B685A68FB681B6822F020025A60EA
:103A6000FB681B6C23F48072FB681A64FB681B6C98
:103A700003F48053002B05D1FB681B6C43F001025B
:103A8000FB681A64F868FCF791FD0EE0FB681B6C9C
:103A900003F01003002B03D0F868FFF775FD04E076
:103AA000FB689B6BDB6C7868984700BF1037BD469E
:103AB00080BD80B584B000AF78607B689B6BFB6095
:103AC000F868FFF757FD00BF1037BD4680BD80B5D1
:103AD00084B000AF78607B689B6BFB60FB68402222
:103AE0001A64FB685B6C43F00402FB685A64F86874
:103AF000FFF74AFD00BF1037BD4680BD80B485B0DA
:103B000000AF78607B6803F00703FB600C4BDB6859
:103B1000BB60BA684FF6FF031340BB60FB681A0234
:103B2000BB68134343F0BF6343F40033BB60044AF4
:103B3000BB68D36000BF1437BD465DF8047B704797
:103B400000ED00E080B400AF044BDB681B0A03F01B
:103B500007031846BD465DF8047B704700ED00E0A2
:103B600080B483B000AF0346FB7197F90730002B98
:103B70000BDBFB7903F01F02074997F907305B095C
:103B8000012000FA02F241F8232000BF0C37BD46A5
:103B90005DF8047B704700BF00E100E080B483B0B3
:103BA00000AF03463960FB7197F90730002B0ADB41
:103BB0003B68DAB20C4997F907301201D2B20B44D4
:103BC00083F800230AE03B68DAB20849FB7903F086
:103BD0000F03043B1201D2B20B441A7600BF0C371C
:103BE000BD465DF8047B704700E100E000ED00E0B9
:103BF00080B489B000AFF860B9607A60FB6803F008
:103C00000703FB61FB69C3F10703042B28BF0423EF
:103C1000BB61FB690433062B02D9FB69033B00E05F
:103C200000237B614FF0FF32BB6902FA03F3DA43F2
:103C3000BB681A407B699A404FF0FF317B6901FAFB
:103C400003F3D9437B680B40134318462437BD4622
:103C50005DF8047B704780B582B000AF786078680B
:103C6000FFF74CFF00BF0837BD4680BD80B586B06A
:103C700000AF0346B9607A60FB7300237B61FFF7F6
:103C800061FF78617A68B9687869FFF7B1FF024629
:103C900097F90F3011461846FFF780FF00BF18371D
:103CA000BD4680BD80B582B000AF0346FB7197F979
:103CB00007301846FFF754FF00BF0837BD4680BDE8
:103CC00080B586B000AF786000237B61FFF7EEFA25
:103CD00038617B68002B01D1012399E07B680222C7
:103CE00083F835207B68002283F834207B681B68CA
:103CF0001A687B681B6822F001021A600FE0FFF768
:103D0000D5FA02463B69D31A052B08D97B682022D5
:103D10005A657B68032283F83520032378E07B68AB
:103D20001B681B6803F00103002BE8D17B681B684C
:103D30001B687B617A69384B13407B617B685A68EA
:103D40007B689B681A437B68DB681A437B681B6946
:103D50001A437B685B691A437B689B691A437B68DB
:103D6000DB691A437B681B6A13437A6913437B61DF
:103D70007B685B6A042B07D17B68DA6A7B681B6B04
:103D800013437A6913437B617B681B687A691A6005
:103D90007B681B685B697B617B6923F007037B6140
:103DA0007B685B6A7A6913437B617B685B6A042B7F
:103DB00017D17B689B6A7A6913437B617B68DB6AF6
:103DC000002B0ED0786800F06FFA0346002B08D065
:103DD0007B6840225A657B68012283F835200123E5
:103DE00016E07B681B687A695A61786800F026FAE9
:103DF0000346FB607B68DB6D3F229A40FB689A605C
:103E00007B6800225A657B68012283F835200023F5
:103E100018461837BD4680BD3F8010F080B586B08B
:103E200000AFF860B9607A603B600023FB75FB6807
:103E30009B6D3B61FB6893F83430012B01D1022369
:103E400040E0FB68012283F83420FB6893F83530AA
:103E5000DBB2012B2FD1FB68022283F83520FB68EF
:103E600000225A653B687A68B968F86800F0B8F9CA
:103E7000FB68DB6D3F229A403B699A60FB681B68D8
:103E80001A68FB681B6842F016021A60FB681B6C1C
:103E9000002B07D0FB681B681A68FB681B6842F0A0
:103EA00008021A60FB681B681A68FB681B6842F00E
:103EB00001021A6005E0FB68002283F83420022327
:103EC000FB75FB7D18461837BD4680BD80B586B0B2
:103ED00000AF78600023BB608E4B1B688E4AA2FB4C
:103EE00003239B0A7B617B689B6D3B613B691B687D
:103EF000FB607B68DB6D08229A40FB681340002B57
:103F00001AD07B681B681B6803F00403002B13D0D6
:103F10007B681B681A687B681B6822F004021A60C1
:103F20007B68DB6D08229A403B699A607B685B6D19
:103F300043F001027B685A657B68DB6D01229A4081
:103F4000FB681340002B12D07B681B685B6903F091
:103F50008003002B0BD07B68DB6D01229A403B690C
:103F60009A607B685B6D43F002027B685A657B68F0
:103F7000DB6D04229A40FB681340002B12D07B6853
:103F80001B681B6803F00203002B0BD07B68DB6D02
:103F900004229A403B699A607B685B6D43F004029F
:103FA0007B685A657B68DB6D10229A40FB68134082
:103FB000002B43D07B681B681B6803F00803002BB1
:103FC0003CD07B68DB6D10229A403B699A607B682D
:103FD0001B681B6803F48023002B18D07B681B68C8
:103FE0001B6803F40023002B08D17B681B6C002B9B
:103FF00024D07B681B6C786898471FE07B689B6CBB
:10400000002B1BD07B689B6C7868984716E07B6818
:104010001B681B6803F48073002B07D17B681B6847
:104020001A687B681B6822F008021A607B681B6CA8
:10403000002B03D07B681B6C786898477B68DB6D2E
:1040400020229A40FB681340002B00F08F807B6891
:104050001B681B6803F01003002B00F087807B684F
:10406000DB6D20229A403B699A607B6893F835307B
:10407000DBB2052B36D17B681B681A687B681B682E
:1040800022F016021A607B681B685A697B681B68FD
:1040900022F080025A617B681B6C002B03D17B6885
:1040A0009B6C002B07D07B681B681A687B681B68B9
:1040B00022F008021A607B68DB6D3F229A403B6960
:1040C0009A607B68012283F835207B68002283F8A0
:1040D00034207B681B6D002B7ED07B681B6D78685D
:1040E000984779E07B681B681B6803F48023002BEA
:1040F0001DD07B681B681B6803F40023002B0DD1C7
:104100007B685B6C002B31D07B685B6C7868984770
:104110002CE000BFAC040020B5814E1B7B68DB6B3C
:10412000002B23D07B68DB6B786898471EE07B68A8
:104130001B681B6803F48073002B0FD17B681B681E
:104140001A687B681B6822F010021A607B680122E3
:1041500083F835207B68002283F834207B68DB6B92
:10416000002B03D07B68DB6B786898477B685B6DBE
:10417000002B32D07B685B6D03F00103002B22D053
:104180007B68052283F835207B681B681A687B688A
:104190001B6822F001021A60BB680133BB607A69B8
:1041A0009A4207D37B681B681B6803F00103002B4E
:1041B000F2D100E000BF7B68012283F835207B68E4
:1041C000002283F834207B68DB6C002B05D07B68F1
:1041D000DB6C7868984700E000BF1837BD4680BDAB
:1041E00080B485B000AFF860B9607A603B60FB686E
:1041F0001B681A68FB681B6822F480221A60FB683F
:104200001B683A685A60FB689B68402B08D1FB68C2
:104210001B687A689A60FB681B68BA68DA6007E016
:10422000FB681B68BA689A60FB681B687A68DA608A
:1042300000BF1437BD465DF8047B704780B485B07D
:1042400000AF78607B681B68DBB2103B144AA2FBAE
:1042500003231B09FB60134AFB6813441B781A46AF
:104260007B68DA65FB68032B09D97B681B6823F43C
:104270007F7323F003031A1D7B689A6507E07B6850
:104280001B6823F47F7323F003037A6893657B68CC
:104290009B6D18461437BD465DF8047B704700BF20
:1042A000ABAAAAAAD8A1000880B485B000AF7860F4
:1042B0000023FB737B689B6ABB607B689B69002B58
:1042C0001FD1BB68032B56D801A252F823F000BFC0
:1042D000E1420008F3420008E14200087743000889
:1042E0007B68DB6A03F08073002B46D00123FB73ED
:1042F00043E07B68DB6AB3F1C07F40D10123FB73ED
:104300003DE07B689B69B3F5005F21D1BB68032B5F
:1043100037D801A252F823F0294300082F430008A0
:1043200029430008414300080123FB7330E07B6808
:10433000DB6A03F08073002B25D00123FB7322E09E
:104340007B68DB6AB3F1C07F1FD10123FB731CE0E4
:10435000BB68022B03D9BB68032B03D018E00123F1
:10436000FB7315E07B68DB6A03F08073002B0ED0D3
:104370000123FB730BE000BF0AE000BF08E000BFB1
:1043800006E000BF04E000BF02E000BF00E000BFA5
:10439000FB7B18461437BD465DF8047B704700BFB1
:1043A00080B489B000AF7860396000237B6100235E
:1043B0003B610023BB610023FB6159E10122FB69E2
:1043C00002FA03F37B613B681B687A6913403B6127
:1043D0003A697B699A4240F048813B685B6803F028
:1043E0000303012B05D03B685B6803F00303022B3A
:1043F00030D17B689B68BB61FB695B00032202FADA
:1044000003F3DB43BA691340BB613B68DA68FB69BD
:104410005B0002FA03F3BA691343BB617B68BA69B4
:104420009A607B685B68BB610122FB6902FA03F357
:10443000DB43BA691340BB613B685B681B0903F04F
:104440000102FB6902FA03F3BA691343BB617B689B
:10445000BA695A603B685B6803F00303032B17D00B
:104460007B68DB68BB61FB695B00032202FA03F334
:10447000DB43BA691340BB613B689A68FB695B0028
:1044800002FA03F3BA691343BB617B68BA69DA6065
:104490003B685B6803F00303022B23D1FB69DA0856
:1044A0007B68083253F82230BB61FB6903F00703D5
:1044B0009B000F2202FA03F3DB43BA691340BB618E
:1044C0003B681A69FB6903F007039B0002FA03F3D8
:1044D000BA691343BB61FB69DA087B680832B969C2
:1044E00043F822107B681B68BB61FB695B000322F9
:1044F00002FA03F3DB43BA691340BB613B685B68B4
:1045000003F00302FB695B0002FA03F3BA69134389
:10451000BB617B68BA691A603B685B6803F440332F
:10452000002B00F0A2800023FB60574B5B6C564AC7
:1045300043F480435364544B5B6C03F48043FB604F
:10454000FB68524AFB699B08023352F82330BB6177
:10455000FB6903F003039B000F2202FA03F3DB4322
:10456000BA691340BB617B68494A934219D07B68A2
:10457000484A934213D07B68474A93420DD07B68E8
:10458000464A934207D07B68454A934201D10423AF
:1045900008E0072306E0032304E0022302E00123EE
:1045A00000E00023FA6902F0030292009340BA6926
:1045B0001343BB613549FB699B080233BA6941F873
:1045C0002320384B9B68BB613B69DB43BA691340CE
:1045D000BB613B685B6803F48013002B03D0BA69AE
:1045E0003B691343BB612F4ABB6993602D4BDB686A
:1045F000BB613B69DB43BA691340BB613B685B68E5
:1046000003F40013002B03D0BA693B691343BB6169
:10461000244ABB69D360234B5B68BB613B69DB43C6
:10462000BA691340BB613B685B6803F40033002B3D
:1046300003D0BA693B691343BB611A4ABB69536033
:10464000184B1B68BB613B69DB43BA691340BB6114
:104650003B685B6803F48033002B03D0BA693B6985
:104660001343BB610F4ABB691360FB690133FB61F4
:10467000FB690F2B7FF6A2AE00BF00BF2437BD46FB
:104680005DF8047B704700BF0038024000380140ED
:10469000000002400004024000080240000C0240FA
:1046A00000100240003C014080B485B000AF78604B
:1046B0000B467B807B681A697B881340002B02D0F5
:1046C0000123FB7301E00023FB73FB7B18461437C7
:1046D000BD465DF8047B704780B483B000AF78605E
:1046E0000B467B8013467B707B78002B03D07A8847
:1046F0007B689A6103E07B881A047B689A6100BF3B
:104700000C37BD465DF8047B704780B485B000AFC0
:1047100078600B467B807B685B69FB607A88FB680E
:1047200013401A04FB68D9437B880B401A437B680B
:104730009A6100BF1437BD465DF8047B70470000E6
:1047400080B586B000AF78607B68002B01D1012373
:1047500067E27B681B6803F00103002B75D0884B70
:104760009B6803F00C03042B0CD0854B9B6803F073
:104770000C03082B12D1824B5B6803F48003B3F562
:10478000800F0BD17E4B1B6803F40033002B5BD0F2
:104790007B685B68002B57D1012342E27B685B6832
:1047A000B3F5803F06D1764B1B68754A43F48033DE
:1047B00013601DE07B685B68B3F5A02F0CD1704BD4
:1047C0001B686F4A43F4802313606D4B1B686C4A6F
:1047D00043F4803313600BE0694B1B68684A23F491
:1047E00080331360664B1B68654A23F48023136093
:1047F0007B685B68002B13D0FEF758FD386108E03A
:10480000FEF754FD02463B69D31A642B01D90323FA
:1048100007E25B4B1B6803F40033002BF0D014E07D
:10482000FEF744FD386108E0FEF740FD02463B69B3
:10483000D31A642B01D90323F3E1514B1B6803F412
:104840000033002BF0D100E000BF7B681B6803F051
:104850000203002B63D04A4B9B6803F00C03002B30
:104860000BD0474B9B6803F00C03082B1CD1444B27
:104870005B6803F48003002B16D1414B1B6803F0E7
:104880000203002B05D07B68DB68012B01D00123DC
:10489000C7E13B4B1B6823F0F8027B681B69DB0018
:1048A000374913430B603AE07B68DB68002B20D06C
:1048B000344B01221A60FEF7F9FC386108E0FEF77C
:1048C000F5FC02463B69D31A022B01D90323A8E168
:1048D0002B4B1B6803F00203002BF0D0284B1B6806
:1048E00023F0F8027B681B69DB00254913430B604A
:1048F00015E0244B00221A60FEF7D8FC386108E06E
:10490000FEF7D4FC02463B69D31A022B01D90323DC
:1049100087E11B4B1B6803F00203002BF0D17B687F
:104920001B6803F00803002B36D07B685B69002B03
:1049300016D0154B01221A60FEF7B8FC386108E06A
:10494000FEF7B4FC02463B69D31A022B01D90323BC
:1049500067E10B4B5B6F03F00203002BF0D01BE011
:10496000094B00221A60FEF7A1FC38610EE0FEF749
:104970009DFC02463B69D31A022B07D9032350E161
:104980000038024000004742800E4742884B5B6F70
:1049900003F00203002BEAD17B681B6803F00403D9
:1049A000002B00F097800023FB75814B1B6C03F0FC
:1049B0008053002B0FD10023BB607D4B1B6C7C4AC6
:1049C00043F0805313647A4B1B6C03F08053BB603D
:1049D000BB680123FB75774B1B6803F48073002BC6
:1049E00018D1744B1B68734A43F480731360FEF74D
:1049F0005DFC386108E0FEF759FC02463B69D31ABA
:104A0000022B01D903230CE16A4B1B6803F480736A
:104A1000002BF0D07B689B68012B06D1644B1B6F89
:104A2000634A43F0010313671CE07B689B68052B16
:104A30000CD15F4B1B6F5E4A43F0040313675C4B62
:104A40001B6F5B4A43F0010313670BE0584B1B6F6E
:104A5000574A23F001031367554B1B6F544A23F049
:104A6000040313677B689B68002B15D0FEF71EFCC0
:104A700038610AE0FEF71AFC02463B69D31A41F29C
:104A80008832934201D90323CBE0494B1B6F03F0DB
:104A90000203002BEED014E0FEF708FC38610AE0B8
:104AA000FEF704FC02463B69D31A41F28832934276
:104AB00001D90323B5E03E4B1B6F03F00203002B2B
:104AC000EED1FB7D012B05D1394B1B6C384A23F00D
:104AD000805313647B689B69002B00F0A180344BEA
:104AE0009B6803F00C03082B5CD07B689B69022B4E
:104AF00041D1314B00221A60FEF7D8FB386108E043
:104B0000FEF7D4FB02463B69D31A022B01D90323DB
:104B100087E0274B1B6803F00073002BF0D17B6804
:104B2000DA697B681B6A1A437B685B6A9B011A43DC
:104B30007B689B6A5B08013B1B041A437B68DB6A4A
:104B40001B061B4913434B601B4B01221A60FEF7E7
:104B5000ADFB386108E0FEF7A9FB02463B69D31ABA
:104B6000022B01D903235CE0114B1B6803F0007397
:104B7000002BF0D054E0104B00221A60FEF796FB99
:104B8000386108E0FEF792FB02463B69D31A022B1C
:104B900001D9032345E0064B1B6803F00073002B8B
:104BA000F0D13DE07B689B69012B07D1012338E000
:104BB0000038024000700040600047421B4B5B68B9
:104BC000FB607B689B69012B28D0FB6803F48002A3
:104BD0007B68DB699A4221D1FB6803F03F027B6866
:104BE0001B6A9A421AD1FA6847F6C07313407A6872
:104BF000526A9201934211D1FB6803F440327B6800
:104C00009B6A5B08013B1B049A4207D1FB6803F0D7
:104C100070627B68DB6A1B069A4201D0012300E0C8
:104C2000002318461837BD4680BD00BF003802403B
:104C300080B584B000AF786039607B68002B01D10B
:104C40000123CCE0684B1B6803F007033A689A42E3
:104C50000CD9654B3A68D2B21A70634B1B6803F0EB
:104C600007033A689A4201D00123B8E07B681B68C9
:104C700003F00203002B20D07B681B6803F00403C1
:104C8000002B05D0594B9B68584A43F4E05393607E
:104C90007B681B6803F00803002B05D0534B9B680F
:104CA000524A43F460439360504B9B6823F0F002F8
:104CB0007B689B684D4913438B607B681B6803F0DE
:104CC0000103002B44D07B685B68012B07D1474B65
:104CD0001B6803F40033002B19D101237FE07B68AC
:104CE0005B68022B03D07B685B68032B07D13F4BCB
:104CF0001B6803F00073002B09D101236FE03B4BCD
:104D00001B6803F00203002B01D1012367E0374B3E
:104D10009B6823F003027B685B68344913438B6014
:104D2000FEF7C4FAF8600AE0FEF7C0FA0246FB6834
:104D3000D31A41F28832934201D903234FE02B4B1F
:104D40009B6803F00C027B685B689B009A42EBD186
:104D5000254B1B6803F007033A689A420CD2224B9A
:104D60003A68D2B21A70204B1B6803F007033A6806
:104D70009A4201D0012332E07B681B6803F00403F0
:104D8000002B08D0194B9B6823F4E0527B68DB684A
:104D9000164913438B607B681B6803F00803002BE4
:104DA00009D0124B9B6823F460427B681B69DB00CF
:104DB0000E4913438B6000F021F802460B4B9B68B1
:104DC0001B0903F00F030A49CB5C22FA03F3094ADB
:104DD0001360094B1B681846FEF714F900231846A8
:104DE0001037BD4680BD00BF003C02400038024085
:104DF000C0A10008AC040020B00400202DE9B04F91
:104E000090B000AF00237B630023FB6300233B6370
:104E10000023BB63594B9B6803F00C03082B0DD098
:104E2000082B00F2A180002B02D0042B03D09BE0C2
:104E3000534BBB639BE0534BBB6398E04F4B5B68AA
:104E400003F03F037B634D4B5B6803F48003002B4F
:104E500028D04A4B5B689B0900223B627A623B6A1E
:104E6000C3F308000021474B03FB01F2002300FBC2
:104E700003F31344434AA0FB0212FA620A46BA62E1
:104E8000FA6A1344FB627B6B0022BB61FA61D7E9CB
:104E90000623D7E90A01FBF7F3F902460B4613464E
:104EA000FB6353E0354B5B689B0900223B617A61F1
:104EB0003B69C3F3080A4FF0000B52465B464FF0C4
:104EC00000004FF00001590141EAD2615001024651
:104ED0000B46B2EB0A0863EB0B094FF000024FF0F0
:104EE00000034FEA891343EA98634FEA8812B2EB52
:104EF000080463EB09054FF000024FF00003EB00DC
:104F000043EA5473E20014461D4614EB0A033B6067
:104F100045EB0B037B604FF000024FF00003D7E935
:104F2000004529468B02214643EA915321468A02D5
:104F3000104619467B6B0022BB60FA60D7E902235A
:104F4000FBF79EF902460B461346FB630B4B5B686F
:104F50001B0C03F0030301335B003B63FA6B3B6BF9
:104F6000B2FBF3F3BB6302E0054BBB6300BFBB6B5B
:104F700018464037BD46BDE8B08F00BF003802403C
:104F80000024F40040787D0180B400AF034B1B681F
:104F90001846BD465DF8047B704700BFAC04002096
:104FA00080B500AFFFF7F0FF0246054B9B689B0AF8
:104FB00003F007030349CB5C22FA03F3184680BDD4
:104FC00000380240D0A1000880B483B000AF786000
:104FD00039607B680F221A60124B9B6803F0030252
:104FE0007B685A600F4B9B6803F0F0027B689A6005
:104FF0000C4B9B6803F4E0527B68DA60094B9B68BA
:10500000DB0803F4E0527B681A61074B1B6803F06E
:1050100007023B681A6000BF0C37BD465DF8047B91
:10502000704700BF00380240003C024080B582B0AB
:1050300000AF78607B68002B01D101237BE07B68A7
:105040005B6A002B08D17B685B68B3F5827F09D06F
:105050007B680022DA6105E07B6800221A617B68C8
:1050600000225A617B6800229A627B6893F8513073
:10507000DBB2002B06D17B68002283F850207868D1
:10508000FDF778FF7B68022283F851207B681B685C
:105090001A687B681B6822F040021A607B685B68B4
:1050A00003F482727B689B6803F404431A437B68B1
:1050B000DB6803F400631A437B681B6903F0020397
:1050C0001A437B685B6903F001031A437B689B69A1
:1050D00003F400731A437B68DB6903F038031A4357
:1050E0007B681B6A03F0800342EA03017B689B6ACA
:1050F00003F400527B681B680A431A607B689B6953
:105100001B0C03F004017B685B6A03F010027B68F0
:105110001B680A435A607B681B68DA697B681B68F6
:1051200022F40062DA617B6800225A657B68012202
:1051300083F85120002318460837BD4680BD80B54E
:1051400088B000AFF860B9603B601346FB80002375
:10515000FB77FB6893F85030012B01D102232DE13E
:10516000FB68012283F85020FEF7A0F8B861FB88A5
:10517000FB82FB6893F85130DBB2012B02D0022393
:10518000FB7716E1BB68002B02D0FB88002B02D115
:105190000123FB770DE1FB68032283F85120FB68B4
:1051A00000225A65FB68BA681A63FB68FA889A8617
:1051B000FB68FA88DA86FB6800229A63FB680022A3
:1051C0009A87FB680022DA87FB6800225A64FB6832
:1051D00000221A64FB689B68B3F5004F0FD1FB688F
:1051E0001B681A68FB681B6822F040021A60FB68A3
:1051F0001B681A68FB681B6842F480421A60FB68EF
:105200001B681B6803F04003402B07D0FB681B683A
:105210001A68FB681B6842F040021A60FB68DB6892
:10522000B3F5006F4FD1FB685B68002B02D0FB8A9F
:10523000012B42D1FB681B6B1A88FB681B68DA6084
:10524000FB681B6B9A1CFB681A63FB68DB8E9BB2C6
:10525000013B9AB2FB68DA862FE0FB681B689B680B
:1052600003F00203022B12D1FB681B6B1A88FB6848
:105270001B68DA60FB681B6B9A1CFB681A63FB688F
:10528000DB8E9BB2013B9AB2FB68DA8615E0FEF733
:105290000DF80246BB69D31A3A689A4203D83B68B4
:1052A000B3F1FF3F02D13B68002B06D10323FB770C
:1052B000FB68012283F851207BE0FB68DB8E9BB208
:1052C000002BCAD150E0FB685B68002B02D0FB8A40
:1052D000012B44D1FB681A6BFB681B680C331278F6
:1052E0001A70FB681B6B5A1CFB681A63FB68DB8E29
:1052F0009BB2013B9AB2FB68DA8630E0FB681B6820
:105300009B6803F00203022B13D1FB681A6BFB6846
:105310001B680C3312781A70FB681B6B5A1CFB68F5
:105320001A63FB68DB8E9BB2013B9AB2FB68DA869C
:1053300015E0FDF7BBFF0246BB69D31A3A689A42F3
:1053400003D83B68B3F1FF3F02D13B68002B06D185
:105350000323FB77FB68012283F8512029E0FB68D7
:10536000DB8E9BB2002BC9D1BA693968F86800F0AE
:10537000B1F80346002B02D0FB6820225A65FB6877
:105380009B68002B0AD100233B61FB681B68DB682C
:105390003B61FB681B689B683B613B69FB685B6D1D
:1053A000002B02D00123FB7703E0FB68012283F886
:1053B0005120FB68002283F85020FB7F18462037DD
:1053C000BD4680BD80B588B000AFF860B9603B6075
:1053D0001346FB71FDF76AFF0246BB6A9B1A3A68E7
:1053E0001344FB61FDF762FFB861394B1B685B0139
:1053F0001B0DFA6902FB03F37B6154E03B68B3F1D8
:10540000FF3F50D0FDF752FF0246BB69D31AFA693D
:105410009A4202D9FB69002B3DD1FB681B685A6890
:10542000FB681B6822F0E0025A60FB685B68B3F51A
:10543000827F11D1FB689B68B3F5004F04D0FB68F5
:105440009B68B3F5806F07D1FB681B681A68FB681F
:105450001B6822F040021A60FB689B6AB3F5005F8C
:105460000FD1FB681B681A68FB681B6822F40052A6
:105470001A60FB681B681A68FB681B6842F40052DC
:105480001A60FB68012283F85120FB68002283F830
:105490005020032317E07B69002B01D10023FB611F
:1054A0007B69013B7B61FB681B689A68BB681340A2
:1054B000BA689A420CBF01230023DBB21A46FB797B
:1054C0009A429BD1002318462037BD4680BD00BFBD
:1054D000AC04002080B588B002AFF860B9607A6093
:1054E0007B680093BB6801220221F868FFF76AFF1E
:1054F0000346002B07D0FB685B6D43F02002FB687E
:105500005A65032332E01B4B1B681B4AA2FB032393
:105510005B0D4FF47A7202FB03F37B61FB685B68FF
:10552000B3F5827F12D17B680093BB680022802193
:10553000F868FFF747FF0346002B16D0FB685B6D4A
:1055400043F02002FB685A6503230FE07B69002BC0
:105550000AD07B69013B7B61FB681B689B6803F099
:105560008003802BF2D000E000BF002318461837DC
:10557000BD4680BDAC040020819F5E1680B582B020
:1055800000AF78607B68002B01D1012341E07B688C
:1055900093F83D30DBB2002B06D17B68002283F804
:1055A0003C20786800F039F87B68022283F83D20BF
:1055B0007B681A687B6804331946104600F0B2F91C
:1055C0007B68012283F846207B68012283F83E2015
:1055D0007B68012283F83F207B68012283F840200A
:1055E0007B68012283F841207B68012283F84220F6
:1055F0007B68012283F843207B68012283F84420E2
:105600007B68012283F845207B68012283F83D20D6
:10561000002318460837BD4680BD80B483B000AF74
:10562000786000BF0C37BD465DF8047B7047000012
:1056300080B485B000AF78607B6893F83D30DBB212
:10564000012B01D0012344E07B68022283F83D2036
:105650007B681B68DA687B681B6842F00102DA60CD
:105660007B681B681E4A934218D07B681B68B3F1A5
:10567000804F13D07B681B681A4A93420ED07B6818
:105680001B68194A934209D07B681B68174A9342EA
:1056900004D07B681B68164A934211D17B681B6853
:1056A0009B6803F00703FB60FB68062B10D07B6848
:1056B0001B681A687B681B6842F001021A6007E0E9
:1056C0007B681B681A687B681B6842F001021A60DD
:1056D000002318461437BD465DF8047B704700BFB1
:1056E000000001400004004000080040000C0040A1
:1056F0000040014080B584B000AF78607B681B68D3
:10570000DB68FB607B681B681B69BB60BB6803F0E0
:105710000203002B20D0FB6803F00203002B1BD0F8
:105720007B681B686FF002021A617B6801221A779E
:105730007B681B689B6903F00303002B03D0786828
:1057400000F0D2F805E0786800F0C4F8786800F05E
:10575000D5F87B6800221A77BB6803F00403002B9E
:1057600020D0FB6803F00403002B1BD07B681B6870
:105770006FF004021A617B6802221A777B681B684B
:105780009B6903F44073002B03D0786800F0ACF8F9
:1057900005E0786800F09EF8786800F0AFF87B6864
:1057A00000221A77BB6803F00803002B20D0FB68A7
:1057B00003F00803002B1BD07B681B686FF0080206
:1057C0001A617B6804221A777B681B68DB6903F027
:1057D0000303002B03D0786800F086F805E07868B2
:1057E00000F078F8786800F089F87B6800221A7772
:1057F000BB6803F01003002B20D0FB6803F01003FC
:10580000002B1BD07B681B686FF010021A617B684D
:1058100008221A777B681B68DB6903F44073002B4E
:1058200003D0786800F060F805E0786800F052F87E
:10583000786800F063F87B6800221A77BB6803F091
:105840000103002B0CD0FB6803F00103002B07D0F1
:105850007B681B686FF001021A617868FCF7B6FF7D
:10586000BB6803F08003002B0CD0FB6803F08003BF
:10587000002B07D07B681B686FF080021A61786884
:1058800000F0E6F8BB6803F04003002B0CD0FB6887
:1058900003F04003002B07D07B681B686FF04002C9
:1058A0001A61786800F034F8BB6803F02003002B1D
:1058B0000CD0FB6803F02003002B07D07B681B682B
:1058C0006FF020021A61786800F0B8F800BF103756
:1058D000BD4680BD80B483B000AF786000BF0C3798
:1058E000BD465DF8047B704780B483B000AF78603C
:1058F00000BF0C37BD465DF8047B704780B483B0B1
:1059000000AF786000BF0C37BD465DF8047B704780
:1059100080B483B000AF786000BF0C37BD465DF83F
:10592000047B704780B485B000AF786039607B68D5
:105930001B68FB607B683A4A93420FD07B68B3F1E7
:10594000804F0BD07B68374A934207D07B68364A3A
:10595000934203D07B68354A934208D1FB6823F019
:105960007003FB603B685B68FA681343FB607B680D
:105970002B4A93421BD07B68B3F1804F17D07B68D2
:10598000284A934213D07B68274A93420FD07B6802
:10599000264A93420BD07B68254A934207D07B6806
:1059A000244A934203D07B68234A934208D1FB6880
:1059B00023F44073FB603B68DB68FA681343FB60C9
:1059C000FB6823F080023B685B691343FB607B68E4
:1059D000FA681A603B689A687B68DA623B681A6802
:1059E0007B689A627B680E4A934203D13B681A69CE
:1059F0007B681A637B6801225A617B681B6903F02C
:105A00000103012B05D17B681B6923F001027B6830
:105A10001A6100BF1437BD465DF8047B704700BFB4
:105A2000000001400004004000080040000C00405D
:105A300000400140004401400048014080B483B070
:105A400000AF786000BF0C37BD465DF8047B70473F
:105A500080B483B000AF786000BF0C37BD465DF8FE
:105A6000047B704780B483B000AF03463960FB719C
:105A700097F90730002B0ADB3B68DAB20C4997F93B
:105A800007301201D2B20B4483F800230AE03B68CE
:105A9000DAB20849FB7903F00F03043B1201D2B2DA
:105AA0000B441A7600BF0C37BD465DF8047B704787
:105AB00000E100E000ED00E080B500AF054B1B68A1
:105AC00002F032F80346012B01D002F02DFF00BF97
:105AD00080BD00BF10E000E080B500AF00216FF096
